{
  "address": "0x4C28E49b60b0E1E3D05c7065DBcD25a2C379aeb1",
  "abi": [
    {
      "inputs": [
        {
          "internalType": "address payable",
          "name": "diceGameAddress",
          "type": "address"
        }
      ],
      "stateMutability": "nonpayable",
      "type": "constructor"
    },
    {
      "anonymous": false,
      "inputs": [
        {
          "indexed": true,
          "internalType": "address",
          "name": "previousOwner",
          "type": "address"
        },
        {
          "indexed": true,
          "internalType": "address",
          "name": "newOwner",
          "type": "address"
        }
      ],
      "name": "OwnershipTransferred",
      "type": "event"
    },
    {
      "inputs": [],
      "name": "diceGame",
      "outputs": [
        {
          "internalType": "contract DiceGame",
          "name": "",
          "type": "address"
        }
      ],
      "stateMutability": "view",
      "type": "function"
    },
    {
      "inputs": [],
      "name": "nonce",
      "outputs": [
        {
          "internalType": "uint256",
          "name": "",
          "type": "uint256"
        }
      ],
      "stateMutability": "view",
      "type": "function"
    },
    {
      "inputs": [],
      "name": "owner",
      "outputs": [
        {
          "internalType": "address",
          "name": "",
          "type": "address"
        }
      ],
      "stateMutability": "view",
      "type": "function"
    },
    {
      "inputs": [],
      "name": "renounceOwnership",
      "outputs": [],
      "stateMutability": "nonpayable",
      "type": "function"
    },
    {
      "inputs": [],
      "name": "riggedRoll",
      "outputs": [],
      "stateMutability": "nonpayable",
      "type": "function"
    },
    {
      "inputs": [
        {
          "internalType": "address",
          "name": "newOwner",
          "type": "address"
        }
      ],
      "name": "transferOwnership",
      "outputs": [],
      "stateMutability": "nonpayable",
      "type": "function"
    },
    {
      "inputs": [
        {
          "internalType": "address",
          "name": "_addr",
          "type": "address"
        },
        {
          "internalType": "uint256",
          "name": "_amount",
          "type": "uint256"
        }
      ],
      "name": "withdraw",
      "outputs": [],
      "stateMutability": "nonpayable",
      "type": "function"
    },
    {
      "stateMutability": "payable",
      "type": "receive"
    }
  ],
  "transactionHash": "0x40eebaed560709ac63bf1e834e6f84ab4f590cddb94e1e69306cdb0b42ad9fba",
  "args": [
    "0x3a607376aAD39dC8DB6E61738f6e875B0278e90D"
  ],
  "numDeployments": 2,
  "solcInputHash": "eb43f871ce91b06c0cd501b0cbb532d6",
  "bytecode": "0x608060405234801561001057600080fd5b5060405161088938038061088983398101604081905261002f916100ad565b6100383361005d565b600180546001600160a01b0319166001600160a01b03929092169190911790556100dd565b600080546001600160a01b038381166001600160a01b0319831681178455604051919092169283917f8be0079c531659141344cd1fd0a4f28419497f9722a3daafe3b4186f6b6457e09190a35050565b6000602082840312156100bf57600080fd5b81516001600160a01b03811681146100d657600080fd5b9392505050565b61079d806100ec6000396000f3fe6080604052600436106100745760003560e01c80638e288fd11161004e5780638e288fd1146100e3578063affed0e014610103578063f2fde38b14610127578063f3fef3a31461014757600080fd5b80636b5e97f814610080578063715018a6146100975780638da5cb5b146100ac57600080fd5b3661007b57005b600080fd5b34801561008c57600080fd5b50610095610167565b005b3480156100a357600080fd5b50610095610342565b3480156100b857600080fd5b506000546001600160a01b03165b6040516001600160a01b0390911681526020015b60405180910390f35b3480156100ef57600080fd5b506001546100c6906001600160a01b031681565b34801561010f57600080fd5b5061011960025481565b6040519081526020016100da565b34801561013357600080fd5b506100956101423660046105e8565b610356565b34801561015357600080fd5b5061009561016236600461060a565b6103cf565b66071afd498d00004710156101c35760405162461bcd60e51b815260206004820152601e60248201527f4e6f7420656e6f7567682045544820696e2074686520636f6e7472616374000060448201526064015b60405180910390fd5b60006101d060014361064a565b6001546002546040805193406020850181905260609390931b6bffffffffffffffffffffffff1916908401526054830152915060009060740160408051601f19818403018152919052805160209091012090506000610230601083610663565b9050610269604051806040016040528060158152602001740283932b234b1ba32b2102234b1b2902937b6361d1605d1b81525082610471565b6005811161030757600160009054906101000a90046001600160a01b03166001600160a01b0316637d789dee66071afd498d00006040518263ffffffff1660e01b81526004016000604051808303818588803b1580156102c857600080fd5b505af11580156102dc573d6000803e3d6000fd5b5050505050610302604051806060016040528060218152602001610747602191396104ba565b610328565b6103286040518060600160405280602d815260200161071a602d91396104ba565b6002805490600061033883610685565b9190505550505050565b61034a6104fd565b6103546000610557565b565b61035e6104fd565b6001600160a01b0381166103c35760405162461bcd60e51b815260206004820152602660248201527f4f776e61626c653a206e6577206f776e657220697320746865207a65726f206160448201526564647265737360d01b60648201526084016101ba565b6103cc81610557565b50565b6103d76104fd565b804710156104335760405162461bcd60e51b8152602060048201526024808201527f496e73756666696369656e742062616c616e636520696e2074686520636f6e746044820152631c9858dd60e21b60648201526084016101ba565b60405182906001600160a01b0382169083156108fc029084906000818181858888f1935050505015801561046b573d6000803e3d6000fd5b50505050565b6104b682826040516024016104879291906106e4565b60408051601f198184030181529190526020810180516001600160e01b0316632d839cb360e21b1790526105a7565b5050565b6103cc816040516024016104ce9190610706565b60408051601f198184030181529190526020810180516001600160e01b031663104c13eb60e21b1790526105a7565b6000546001600160a01b031633146103545760405162461bcd60e51b815260206004820181905260248201527f4f776e61626c653a2063616c6c6572206973206e6f7420746865206f776e657260448201526064016101ba565b600080546001600160a01b038381166001600160a01b0319831681178455604051919092169283917f8be0079c531659141344cd1fd0a4f28419497f9722a3daafe3b4186f6b6457e09190a35050565b6103cc8160006a636f6e736f6c652e6c6f679050600080835160208501845afa505050565b80356001600160a01b03811681146105e357600080fd5b919050565b6000602082840312156105fa57600080fd5b610603826105cc565b9392505050565b6000806040838503121561061d57600080fd5b610626836105cc565b946020939093013593505050565b634e487b7160e01b600052601160045260246000fd5b8181038181111561065d5761065d610634565b92915050565b60008261068057634e487b7160e01b600052601260045260246000fd5b500690565b60006001820161069757610697610634565b5060010190565b6000815180845260005b818110156106c4576020818501810151868301820152016106a8565b506000602082860101526020601f19601f83011685010191505092915050565b6040815260006106f7604083018561069e565b90508260208301529392505050565b602081526000610603602083018461069e56fe526f6c6c206e6f74206661766f7261626c652e20446964206e6f742063616c6c20726f6c6c546865446963652e57696e6e696e6720726f6c6c212043616c6c656420726f6c6c546865446963652ea26469706673582212200fd280ba1db0a5f649ac5c96de00ae78ec48db63ec3c08ddfe8f3e6581c25ed064736f6c63430008110033",
  "devdoc": {
    "kind": "dev",
    "methods": {
      "owner()": {
        "details": "Returns the address of the current owner."
      },
      "renounceOwnership()": {
        "details": "Leaves the contract without owner. It will not be possible to call `onlyOwner` functions anymore. Can only be called by the current owner. NOTE: Renouncing ownership will leave the contract without an owner, thereby removing any functionality that is only available to the owner."
      },
      "transferOwnership(address)": {
        "details": "Transfers ownership of the contract to a new account (`newOwner`). Can only be called by the current owner."
      }
    },
    "version": 1
  },
  "userdoc": {
    "kind": "user",
    "methods": {},
    "version": 1
  },
  "storageLayout": {
    "storage": [
      {
        "astId": 7,
        "contract": "contracts/RiggedRoll.sol:RiggedRoll",
        "label": "_owner",
        "offset": 0,
        "slot": "0",
        "type": "t_address"
      },
      {
        "astId": 308,
        "contract": "contracts/RiggedRoll.sol:RiggedRoll",
        "label": "diceGame",
        "offset": 0,
        "slot": "1",
        "type": "t_contract(DiceGame)298"
      },
      {
        "astId": 310,
        "contract": "contracts/RiggedRoll.sol:RiggedRoll",
        "label": "nonce",
        "offset": 0,
        "slot": "2",
        "type": "t_uint256"
      }
    ],
    "types": {
      "t_address": {
        "encoding": "inplace",
        "label": "address",
        "numberOfBytes": "20"
      },
      "t_contract(DiceGame)298": {
        "encoding": "inplace",
        "label": "contract DiceGame",
        "numberOfBytes": "20"
      },
      "t_uint256": {
        "encoding": "inplace",
        "label": "uint256",
        "numberOfBytes": "32"
      }
    }
  }
}